:1000000075FFDE75FFAD75B21475E10075E2007520
:10001000E34075A5FF75A7FF75A4007B047E0B90D8
:10002000040075B03F75904F7550057555007560AB
:10003000067565017570027C067D4F7585048565C2
:10004000A011D61178DB148C60AB8511D68565754F
:100050008570658575708565A001430560E56093D1
:10006000F590DE077E0B75550001431178E5559339
:10007000F5B011D605550162E58054016049E5806F
:1000800054026048E58054046047E5805408600DE0
:10009000E58054106015E5805420601D2215601124
:1000A000D60B11D61C11D6058501787560077B0328
:1000B000AC607585037D5B01787560087B02AC6080
:1000C0007585027D06017875500101787550030130
:1000D000787550050178AA5079C8117878C6D8FE8D
:0500E000D9FADAF42258
:0A0400006F7F077D6D664F5B063FBE
:00000001FF
